:100000000C945E030C947B030C947B030C947B0395
:100010000C947B030C947B030C947B030C944F0D8A
:100020000C947B030C947B030C947B030C947B0358
:100030000C947B030C947B030C947B030C94230B98
:100040000C947B030C947B030C948E060C94BB06DF
:100050000C947B030C94DA040C946C0E0C947B03CC
:100060000C947B030C947B030C947B030C947B0318
:100070000C947B030C947B030C947B030C947B0308
:100080000C947B030C947B030C947B037306430654
:100090003F063B06370633062F062B0627062306A8
:1000A0001F061B06170613060F060B060706030698
:1000B000FF05FB05F805F505640A0B0C0D0E0F1086
:1000C0001112131415161718191A1B1C1D1E1F20A8
:1000D0002122232425262728292A2B2C2D2E2F3098
:1000E0003132333435363738393A3B3B3C3D3E3F8D
:1000F000404142434445464748494A4B4C4D4E4F88
:10010000505152535455565758595A5B5C5D5E5F77
:10011000606162636465666768696A6B6C6D6E6E68
:100120006F707172737475767778797A7B7C7D7E67
:100130007F808182838485868788898A8B8C8D8E57
:100140008F909192939495969798999A9B9C9D9E47
:100150009FA0A0A1A2A3A4A5A6A7A8A9AAABACAD45
:10016000AEAFB0B1B2B3B4B5B6B7B8B9BABBBCBD37
:10017000BEBFC0C1C2C3C4C5C6C7C8C9CACBCCCD27
:10018000CECFD0D1D2D2D3D4D5D6D7D8D9DADBDC22
:10019000DDDEDFE0E1E2E3E4E5E6E7E8E9EAEBEC17
:1001A000EDEEEFF0F1F2F3F4F5F6F7F8F9FAFBFC07
:1001B000FDFEFFFFFFFFFF64640A0B0B0C0C0D0D2F
:1001C0000E0E0E0F0F101011111112121313141422
:1001D0001515151616171718181819191A1A1B1BA2
:1001E0001B1C1C1D1D1E1E1F1F1F20202121222223
:1001F00022232324242525262626272728282929A3
:10020000292A2A2B2B2C2C2C2D2D2E2E2F2F303023
:1002100030313132323333333434353536363737A3
:1002200037383839393A3A3A3B3B3C3C3D3D3D3E24
:100230003E3F3F40404141414242434344444445A4
:10024000454646474747484849494A4A4B4B4B4C25
:100250004C4D4D4E4E4E4F4F5050515152525253A5
:100260005354545555555656575758585859595A26
:100270005A5B5B5C5C5C5D5D5E5E5F5F5F606061A6
:100280006162626363636464656566666667676826
:10029000686969696A6A6B6B6C6C6D6D6D6E6E6FA7
:1002A0006F70707071717272737374747475757627
:1002B0007677777778787964648D8D8C8C8B8B8B5F
:1002C0008A8A8989888887878686868585848483C3
:1002D00083828281818080807F7F7E7E7D7D7C7C29
:1002E0007B7B7A7A7A797978787777767675757490
:1002F000747473737272717170706F6F6E6E6E6DF5
:100300006D6C6C6B6B6A6A6969686868676766665A
:10031000656564646363626262616160605F5F5EC1
:100320005E5D5D5C5C5C5B5B5A5A59595858575727
:10033000575656555554545353525251515150508B
:100340004F4F4E4E4D4D4C4C4B4B4B4A4A494948F2
:100350004847474646454545444443434242414158
:1003600040403F3F3F3E3E3D3D3C3C3B3B3A3A39BF
:100370003939383837373636353534343333333224
:1003800032313130302F2F2E2E2D2D2D2C2C2B2B8A
:100390002A2A2929282828272726262525242423F0
:1003A00023222222212120201F1F1E1E1D1D1C1C56
:1003B0001C1B1B1B1B1B1B64648D8D8D8D8D8C8CDE
:1003C0008C8C8B8B8B8B8B8A8A8A8A8A8989898988
:1003D00089888888888887878787878686868686AB
:1003E00085858585858484848484838383838282D0
:1003F000828282818181818180808080807F7F7FF5
:100400007F7F7E7E7E7E7E7D7D7D7D7D7C7C7C7C17
:100410007C7B7B7B7B7A7A7A7A7A7979797979783D
:100420007878787877777777777676767676757561
:100430007575757474747474737373737372727284
:1004400072717171717170707070706F6F6F6F6FAA
:100450006E6E6E6E6E6D6D6D6D6D6C6C6C6C6C6BCE
:100460006B6B6B6B6A6A6A6A6969696969686868F3
:100470006868676767676766666666666565656517
:10048000656464646464636363636362626262623A
:100490006161616160606060605F5F5F5F5F5E5E61
:1004A0005E5E5E5D5D5D5D5D5C5C5C5C5C5B5B5B84
:1004B0005B5B5A5A5A5A5A64642F363A3D4041435C
:1004C0004446474849494A4B4C4C4D4D4E4E4F4F80
:1004D00050505151525252535353545454555555F0
:1004E0005656565657575757585858585959595994
:1004F000595A5A5A5A5A5B5B5B5B5B5C5C5C5C5C4E
:100500005D5D5D5D5D5D5E5E5E5E5E5E5F5F5F5F0D
:100510005F5F6060606060606161616161616162D4
:10052000626262626262636363636363636464649E
:10053000646464646565656565656566666666666A
:100540006666676767676767676868686868686836
:10055000696969696969696A6A6A6A6A6A6A6B6B00
:100560006B6B6B6B6C6C6C6C6C6C6C6D6D6D6D6DCA
:100570006D6E6E6E6E6E6E6F6F6F6F6F707070708F
:10058000707171717171727272727273737373744C
:1005900074747475757575767676777777787878FC
:1005A0007979797A7A7B7B7C7C7D7D7E7F80808186
:1005B00082838586888B8F64D2FFFFFFFFFFFFFF5A
:1005C000FFFFFFFFFFFFFFFFFFFFFFFFFFFEFAF64A
:1005D000F2EEEBE7E4E1DEDCD9D6D4D1CFCDCBC867
:1005E000C6C4C2C0BFBDBBB9B8B6B4B3B1B0AEAD7E
:1005F000ABAAA8A7A6A4A3A2A19F9E9D9C9B9998E5
:1006000097969594939291908F8E8D8C8B8A8988F2
:100610008786858483828281807F7E7D7C7C7B7AD5
:10062000797877777675747373727170706F6E6D99
:100630006D6C6B6A6A696867676665656463626248
:100640006160605F5E5D5D5C5B5B5A5959585757EE
:10065000565554545352525150504F4E4E4D4C4B90
:100660004B4A494948474746454444434242414032
:100670003F3F3E3D3C3C3B3A3939383736363534DE
:1006800033323131302F2E2D2C2C2B2A292827269E
:100690002524232221201F1E1D1C1B191817161488
:1006A0001312100F0E0C0A090705030100000000C9
:1006B00000000000000000D20110040811241FBE39
:1006C000CFEFD0E1DEBFCDBF11E0A0E0B1E0E6E8C2
:1006D000FFE100E00BBF02C007900D92A230B1070E
:1006E000D9F712E0A2E0B1E001C01D92A137B10735
:1006F000E1F70C947D030C940000CFEFD0E1DEBF56
:10070000CDBF8FE08BBB88EF8ABB83E688BB8CEFC5
:1007100087BB80EE85BB8FE184BB8FEF82BB11BAB4
:1007200083B912B810926200109261008093650044
:1007300088E1809364000E94C0041AE013BF88EC33
:1007400081BF82E087BF8FBD89E18EBD88EE93E0D7
:1007500097BD86BD80E28ABF80E489BF0E94800683
:100760001092A70184E18093A8011092B401109225
:10077000AF011092AE011092B8011092BE01109319
:10078000B6010E940E070E94EC0D80911701809324
:1007900018010E94060FC39A0E94BE0A78941EC0D8
:1007A0008091A80184FF06C09091B4018091560207
:1007B000891790F5F8948091A80180628093A80130
:1007C00078940E9420070E949E070E94A4080E941D
:1007D00002090E946F0981E0809310010E94030AC0
:1007E0000E94C60E0E94DE0E8091A70180FFF3CF0B
:1007F0008091AE019091AF01892B69F38091A8019E
:1008000080FFCECFF8948091A8018E7F8093A801BD
:1008100078940E94790AC4CF0E949D0AF89480912E
:10082000A8018F7D8093A8018AE08093B601789417
:10083000D2CF0F931F93CF93C42F801748F506177D
:1008400018F0822F992747C0162F181B09F1081B93
:10085000241708F5412F55278C2F9927821B9109C2
:10086000202F3327BA01829FA001839F500D929FB2
:10087000500D1124CA010E94970F9B01AC011695DF
:10088000812F99274817590714F02F5F3F4FC21B3C
:100890008C2F992720C0412F5527822F99278C1BF9
:1008A0009109202F3327BA01829FA001839F500D09
:1008B000929F500D1124CA010E94970F9B01AC0119
:1008C0001695812F99274817590714F02F5F3F4F2E
:1008D000822F8C0F9927CF911F910F910895CF935D
:1008E000DF93EC01D90121E0FD0112828281982F72
:1008F000861790F4FD019283FE01E90FF11D8081BE
:10090000481708F420E09F5F961710F4222391F710
:10091000FD018281882341F488818C938981FD01C6
:10092000818381E0828309C0FE01E80FF11D82917D
:1009300031968C938081FD018183DF91CF91089561
:100940009B01992764E670E0829FA001839F500D70
:10095000929F500D1124CA010E94970FC29714F064
:100960006F5F7F4FCB01089597E896B98F708066CF
:1009700087B9369A349BFECF349A85B1992708956A
:100980000F931F93CF93C0E002E111E08C2F0E94E0
:10099000B404F80181938F01CF5FC630B8F3CF91D3
:1009A0001F910F9108951092110180E687B98FEC85
:1009B00086B908951F920F920FB60F9211242F93AC
:1009C0008F939F93AF93BF93EF93FF932091110168
:1009D000E22FFF27DF01AE5EBE4F9C91EE5FFE4F20
:1009E000908385B1890F912D911D969587958C9354
:1009F0002F5F263020F010921101339806C020930B
:100A000011012770206627B9369AFF91EF91BF91A7
:100A1000AF919F918F912F910F900FBE0F901F90CC
:100A200018958F3948F4E82FFF27E453FE4F608371
:100A30008F3519F0803631F008956093BB016093D3
:100A4000C10108956093BC016093C2010895AC0197
:100A500080911901E82FFF2731969F013197C90135
:100A6000807E9170281B390B80919A01281791F094
:100A700061116150EE0FFF1FEE0FFF1FE65EFE4F8C
:100A8000518340836283138220931901559A80E039
:100A900090E008958FEF90E00895682F809108010D
:100AA00099278130910531F08230910584F00297C9
:100AB00039F008956093090182E080930801089558
:100AC000809109010E941105109208010895892B57
:100AD00009F0089577276135710559F1623571057F
:100AE00074F06635710571F1673571059CF46335F5
:100AF000710571F16435710509F458C008956234C7
:100B00007105E9F06334710564F46134710509F429
:100B100045C0089567357105C9F06337710571F1F6
:100B200008956334710509F43DC06634710501F11F
:100B3000089561E08AED95E00E94270508950E94DE
:100B40005C0E08956CE789E796E0F6CF81E0B5CFBB
:100B5000F8948AE080936C0280916B0284608093A9
:100B60006B0280916B02816080936B027894089590
:100B7000559810929A01109219010895F8948AE0FC
:100B800080936C0280916B028B7F80936B028091CB
:100B90006B02816080936B027894089566E184EE25
:100BA00095E0CACF61E08EED95E0C6CF6FE989E7A9
:100BB00096E0C2CF80910001992708958091C701E6
:100BC0009091C801992708959927AA27BB27FC016E
:100BD000469740F4EA5BFF4FEE0FFF1F0590F4913C
:100BE000E02D099480E090E0089583E090E008957E
:100BF00082E090E0089580916C0299270895809199
:100C0000A301992708958091A201992708958091C1
:100C1000A101992708958091A401992708958091B1
:100C2000B801992708958091B4019927089580917A
:100C3000A0019927089580919F0199270895809197
:100C40009E01992708958091130199270895809115
:100C50001201992708958091140199270895809190
:100C6000150199270895809116019927089580917B
:100C70001701992708958091180199270895809167
:100C8000A701992708954091B7015091BD01242FE4
:100C90003327C90182709070880F991F4170482BCB
:100CA00024703070220F331F422B252F3327C901A8
:100CB00081709070880F991F482BC90182709070C5
:100CC000880F991F880F991F880F991F482B247030
:100CD0003070220F331F220F331F220F331F422B7E
:100CE000842F992708958091C7019091C801992771
:100CF0000895E82FFF27E453FE4F80819927089538
:100D000088E98AB986E0809395001092900087E682
:100D100089B910929A011092190108951F920F92A9
:100D20000FB60F9211242F933F934F935F936F93BE
:100D30007F938F939F93AF93BF93EF93FF938BB169
:100D4000992788719070892B11F08CB103C08CB1F8
:100D50000E944D05FF91EF91BF91AF919F918F91AF
:100D60007F916F915F914F913F912F910F900FBEA7
:100D70000F901F9018951F920F920FB60F9211248B
:100D80002F933F934F935F936F937F938F939F9393
:100D9000AF93BF93EF93FF9380919A01E82FFF27C2
:100DA000EE0FFF1FEE0FFF1FE65EFE4F2081318129
:100DB0008381F90109958CB980919A01282F3327F5
:100DC000F901EE0FFF1FEE0FFF1FE65EFE4F93814E
:100DD0008281981718F49F5F93830FC02F5F3F4F56
:100DE000C901807E9170281B390BC90120939A019B
:100DF00020911901281709F45598FF91EF91BF919F
:100E0000AF919F918F917F916F915F914F913F91A2
:100E10002F910F900FBE0F901F90189584E680932E
:100E20009E0180939F018093A0018093A1018093F4
:100E3000A2018093A3011092A4018093A5010895BB
:100E4000EF92FF920F93CF93DF93CDB7DEB7239747
:100E50000FB6F894DEBF0FBECDBFF8948091A70106
:100E600081FF06C08D7F8C608093A70110929D0149
:100E700078949E012F5F3F4F4091AA016AE088E479
:100E800092E00E946F048B81E82FFF27E453FE4F0E
:100E9000DF01AD5BBF4F0091AA01EC5BFF4F2081EA
:100EA0004C916A8189810E941904982F8536D0F06F
:100EB000DE9AF8948091A70188608093A7017894C6
:100EC0008091A70182FF2CC060910F0280919D014B
:100ED000681790F4F8948091A7018B7F8093A70105
:100EE00078941EC094E6F8948091A701837F809344
:100EF000A7017894DE9814C0E92EFF2400919D018B
:100F000020E040910E02822F0E9419049701280FC1
:100F1000311D832F9927892B11F02FEF30E0922F6D
:100F20009093A00123960FB6F894DEBF0FBECDBFFD
:100F3000DF91CF910F91FF90EF900895EF92FF9284
:100F40000F931F93CF93DF93CDB7DEB723970FB6E1
:100F5000F894DEBF0FBECDBFF8944091AC01009174
:100F6000AD017894401718F5041B80911F020817F3
:100F700008F451C08091A70184FD6DC09091B40127
:100F800080915702981708F4D2C080912102809373
:100F9000A501F8948091A7018F7E8093A70180918D
:100FA000A70180628093A7017894DD98C0C0F42ED9
:100FB000F01A80911F02F816E0F08091A70184FDDD
:100FC00058C080911A028093A40110929B018091D5
:100FD000200280939C01F8948091A7018061809306
:100FE000A7018091A7018F7D8093A7017894DD9A56
:100FF0009EC08091A70185FF26C0F8948091A7012B
:101000008F7C8093A701789484E68093A501109249
:10101000A401DD988CC08091A70185FF88C09091C4
:10102000B40180915702981708F081C0F89480911C
:10103000A7018F7C8093A701789484E68093A50113
:101040001092A40174C090919B0180919C0198170B
:1010500008F46DC0D2CF84E68093A5011092A4015C
:10106000F8948091A7018F7C8093A7017894DD98F4
:101070005EC00091AA0124E6409147026DEC80E039
:101080000E941904182F9E012F5F3F4F4F2D64E0DF
:1010900082E592E00E946F048B81E82FFF27E453E2
:1010A000FE4FDF01A35BBF4F0F2DE25BFF4F20819F
:1010B0004C916A8189810E9419049927BC01812F72
:1010C0000E94A0047C01892F9927892B61F500914A
:1010D000AA0120E040911E026DEC822F0E941904AB
:1010E000E80EF11C8F2D9927892B19F09EEFE92E20
:1010F000F12C8091A40199278E159F0510F4E092A0
:10110000A4018091A70185FD06C090919B0180916B
:101110009C01981760F0F8948091A7018F7C8093D0
:10112000A701789471CF38ECE32EF12CD0CF239621
:101130000FB6F894DEBF0FBECDBFDF91CF911F91E8
:101140000F91FF90EF90089520912402222309F43B
:1011500041C09091B401809144029817D8F18091D8
:10116000A701992780739070892BA1F59091AA010E
:1011700080912202981770F18091AC01853B50F567
:101180008091A80182FD26C08091A901803610F5CA
:10119000909123028091A601981720F51092A60144
:1011A00080911301909146028917E1F0809113011B
:1011B0008917C8F48091420281FF19C080912502ED
:1011C00094E6981B80919E01821B891748F49093A6
:1011D0009E01089584E680939E011092A6010895D1
:1011E00080939E0108958091420281FFE7CF909104
:1011F00025029C5980919E01820F981740F380939D
:101200009E010895EF92FF920F931F93CF93DF9368
:10121000CDB7DEB726970FB6F894DEBF0FBECDBFB1
:101220008091420282FF04C08091AC018093A901A9
:101230009E012F5F3F4F4091A90168E088E392E053
:101240000E946F049E012C5F3F4F4091B40168E003
:1012500080E392E00E946F048B81E82FFF278E814C
:10126000EE0FFF1FEE0FFF1FEE0FFF1FE80FF11D28
:10127000DF01AD53BE4F9C91DF01AC53BE4F8C914B
:10128000DF01A553BE4FEC90E453FE4F1081009157
:10129000B401282F492F6D818C810E941904F82EEA
:1012A0000091B401212F4E2D6D818C810E94190473
:1012B0000091A901282F4F2D6A8189810E9419046C
:1012C0008093A30126960FB6F894DEBF0FBECDBF64
:1012D000DF91CF911F910F91FF90EF9008950F93A1
:1012E000CF938091A001682F77278091A5010E945C
:1012F000A004BC0180919F010E94A004BC018091C8
:101300009E010E94A004BC018091A1010E94A00442
:10131000BC01892F9927892BE9F18FEF8093A201D6
:101320008091A3010E94A004BC018091420282FF2F
:101330003CC0809126020E94A004BC01892F9927FD
:10134000892B09F441C0CFEF8091290220912D0211
:10135000482F420F281708F441C020E000911201E5
:1013600064EA8DE30E941904CC2309F442C0282FBB
:101370002C0F312D311DB9018091A401680F711D11
:1013800080912A02681B7109872F9927892B91F177
:101390006FEF30C06093A2018091A3010E94A0046E
:1013A000BC018091420282FDC4CF8091A9010E94BC
:1013B000A004BC01809126020E94A004BC01892FD8
:1013C0009927892B09F0BFCFC62F80912902209140
:1013D0002D02482F420F281708F0BFCF821B282F5D
:1013E0000091120164EA8DE30E941904CC2309F0F4
:1013F000BECF6C2FF8946093BA016093C0017894CB
:10140000CF910F9108950F93A0914002A0FF30C09B
:1014100080911701E82FFF27E854FF4F84918093B4
:10142000A9018091420283FF30C080911801682F8A
:101430007727E0915C022E2F332780915D02482FA1
:101440005527C901841B950B6817790704F1240FF0
:10145000351F26173707DCF0A0FF23C08091180145
:10146000E82FFF27E854FD4F84918093A10121C00C
:1014700080911701E82FFF27E854FE4F8491809355
:10148000A9018091420283FDD0CF84E6EECFE093A4
:10149000A101F8948091A80182608093A8017894BA
:1014A00008C080911801E82FFF27E854FC4F849171
:1014B000DCCF80911501E82FFF27E854FA4F849183
:1014C0008093AA0180911601E82FFF27E854FB4F73
:1014D000849180939F01009114012FEF40E060916F
:1014E0005B0280915A020E9419048093AC010F9113
:1014F0000895F8946091AE017091AF017894809155
:101500002E029927382F222780912F029927282BE6
:10151000392B6115710559F0C9010E94830F872F7E
:101520009927892B39F08FEF8093B4010895109299
:10153000B40108956093B40108950F93F8948091D5
:10154000A7018260837F8093A70178948091AC018A
:101550008B3910F080E00AC00091AA0120910D02A1
:1015600040910C026DEC80E00E941904F894809385
:10157000BA018093C00178940F9108950F938091E0
:101580005802882321F480915902882399F100910F
:1015900014012FEF40E060915B0280915A020E949B
:1015A00019048B3938F580911501E82FFF27E8548D
:1015B000FA4F8491082F20915902409158026DEC06
:1015C00080E00E9419048093B8018093BE011092BC
:1015D000B9011092BF018091B70183608093B70178
:1015E0008091BD0183608093BD018091A7018160DE
:1015F0008093A7010F91089590911001913089F087
:1016000080910A018431D1F0882351F0982F9F5F97
:101610008091A80182FF0FC09D3791F090930A013D
:10162000089580910A01882369F7809310019093AF
:101630000A01DB98089590930A010895DB9AE6CF9A
:1016400010920A0108951F920F920FB60F92112463
:101650002F933F934F935F936F937F938F939F93BA
:10166000AF93BF93EF93FF938091B70181FF11C0B8
:101670008091B7018D7F8093B7018091B70185601C
:101680008093B701DF9AC698809165008860809347
:1016900065008091BD0181FF11C08091BD018D7FEA
:1016A0008093BD018091BD0185608093BD01DF9A6B
:1016B000C598809165008061809365008091B70135
:1016C00082FF1AC09091B9018091B801981708F46F
:1016D000F9C08091B701887F8093B7018FB58F7370
:1016E0008FBDC69A80916500877F80936500809149
:1016F000B9018F5F8093B9018091BD0182FF1AC04B
:101700009091BF018091BE01981708F4C8C08091E4
:10171000BD01887F8093BD018FB58F7C8FBDC59A39
:10172000809165008F7E809365008091BF018F5FFF
:101730008093BF018091A70180FF8BC08091B7018A
:1017400080FF93C08091AE019091AF0196958795EF
:101750002091B0013091B1012817390709F498C0E0
:101760008091B0019091B10101969093B101809365
:10177000B0018091B0019091B101892F99278436F1
:10178000910508F469C01092A7018091A8018461B5
:101790008093A8018091A8018F7D8093A8018AE0A1
:1017A0008093B6011092B1011092B0011092B40171
:1017B00088B3877E88BB8BB38F738BBB1092B801C5
:1017C0001092BE018091C3018F5F8A3009F04AC038
:1017D0001092C3010E94FC0A80910C018F5F85303A
:1017E00009F4F0C080930C018091C6018F5F8436AC
:1017F00009F4C8C08093C601509161028091C40170
:101800009091C501019623E0883E920709F470C0CB
:101810009093C5018093C40140910B01242F33277D
:10182000652F7727CB01929582958F7089279F70BE
:1018300089274F5F281739070CF457C010920B0106
:101840008091A70180FD02C062FF18C10E94510F64
:1018500015C189B7806489BF8091C3018F5F8A30C9
:1018600009F4B6CF8093C30109C18091BD0180FD09
:1018700069CFDF988091AE019091AF0196958795E1
:101880002091B0013091B1012817390709F068CFD4
:1018900088B7806488BF89B7806489BF61CF909121
:1018A000BF018091C201981709F03FCF9091C1010B
:1018B0008AE0989FC001112499BD88BD8FB58063CF
:1018C0008FBD33CF9091B9018091BC01981709F079
:1018D0000ECF9091BB018AE0989FC00111249BBD5F
:1018E0008ABD8FB5806C8FBD02CF40930B01C6C0FF
:1018F0001092C5011092C4012091C7013091C80116
:101900002F5F3F4F3093C8012093C70151FD1BC08B
:1019100040916B0240FD17C09091AC018091640230
:10192000891788F08091B40190916D02891708F0B1
:1019300084C0809167029927880F991F80936C0259
:10194000456040936B028091A80185FF09C080919A
:10195000B6018823E1F18091B60181508093B601F0
:101960008091A80182FF58CF2E31310509F054CF64
:101970008091A70180FF50CF8091A8018B7F809339
:10198000A8014ACF1092C60180919B018F5F80937E
:101990009B018091AC018093AD015091610251FD9A
:1019A0002DCF40916B02242F332720FD27CF24FF1A
:1019B00014C04F7E456040936B0280916F0280930C
:1019C0006C021CCF10920C010E94D3040DCF8091A9
:1019D000A8018F7E8093A801C3CF8091A70185FFC6
:1019E0000BC023FD09C049604B7F40936B0280917F
:1019F000650280936C0202CF9091AC0180916402E9
:101A0000891708F4FBCE8091B401282F33278091E9
:101A10006D02E82FFF2780916E02682F7727CF0194
:101A2000861B970B82179307ACF080916602809318
:101A30006C02456040936B02E1CE8091B40198172F
:101A400038F48091670280936C024B7F416079CFBC
:101A5000477F77CF8091B4019927660F771FE60FF4
:101A6000F71F8E179F070CF4C9CE809166028093F2
:101A70006C024B7F416040936B02C0CEFF91EF91AF
:101A8000BF91AF919F918F917F916F915F914F9196
:101A90003F912F910F900FBE0F901F9018951F929E
:101AA0000F920FB60F9211242F933F938F939F9312
:101AB00089B78F7B89BF80919D018F3F19F08F5F20
:101AC00080939D018091A6018F3F19F08F5F8093D5
:101AD000A6018091B0019091B1012091AE013091A9
:101AE000AF01821B930B9093B3018093B20180915D
:101AF000B0019091B1019093AF018093AE0110922B
:101B0000B1011092B0018091A80181608093A80179
:101B1000C39A8091A70181608093A7018091A7015A
:101B200081FF22C08091A7018F7C8093A701109232
:101B30000E018091A70181FF23C08091BA0180939B
:101B4000B8018091C0018093BE011092B90110923A
:101B5000BF018091B70183608093B7018091BD017F
:101B600083608093BD012FC090910E019F5F809193
:101B700027028917B9F09830C1F090930E0123C065
:101B8000809128028823C9F280910D018F5F809394
:101B90000D0180FF0DC08091C0018093BE011092A5
:101BA000BF01DCCF90930E01C2CF10920E010BC08B
:101BB0008091BA018093B8011092B9018091B70168
:101BC00083608093B7019F918F913F912F910F90E8
:101BD0000FBE0F901F901895ECECF1E0A0E0B0E084
:101BE0008FE9182E0E94B20F90912C029093BC01A5
:101BF00080912B028093BB019093C2018093C1011D
:101C00006FE06093570283E0809356028091430215
:101C1000809359028093580210925A028FEF80935A
:101C20005B021092480244E14093490228E220936B
:101C30004A028CE380934B0250E550934C0234E609
:101C400030934D0288E780934E028CE880934F02D8
:101C50008AEA8093500288EC8093510295E0909339
:101C6000520240935302209354028DE48093550214
:101C70008AEE80935E0290935F0288ED809360020B
:101C800080E98093610289E080936202609363023D
:101C900020936402909365029093660281E08093A2
:101CA0006702509368024093690230936A0230934E
:101CB0005C0240935D0208958091CB01882349F432
:101CC0008093CA0181E08093CB01E39A80E090E0A9
:101CD00008958FEF90E008951F920F920FB60F9224
:101CE00011242F933F934F938F939F93AF93BF9361
:101CF000EF93FF938091CA01282F33272050304063
:101D00008091CA01E82FFF27E453FE4FD9010E94BA
:101D1000AA0F802D482F9081981709F1941721F070
:101D2000D901092E0E94B70F8091CA018E39E1F0C6
:101D30008091CA018F5F8093CA01DC9A19C080919B
:101D4000CA018F5F8093CA012F5F3F4F3196D9013F
:101D50000E94AA0F802D482F90819817F9F6809144
:101D6000CA018E3961F7DACFE3981092CB01DC9883
:101D7000FF91EF91BF91AF919F918F914F913F91C3
:101D80002F910F900FBE0F901F9018959091AA0160
:101D900080915E02891710F4C29A08958091AA0179
:101DA000482F552780915E02992720915F02821B60
:101DB0009109841795070CF0C29808950F938091AC
:101DC000AA01282F332780914502992705972817C4
:101DD00039072CF4C49A83E080936E0209C0909175
:101DE000AA0180914502981718F0C49882E0F4CFB8
:101DF0000091AA0120916202409163026DEC80E0A3
:101E00000E94190480936D020F9108950F9381E150
:101E100080936B0280916B028B7F80936B02809129
:101E20006A0280936C028091630280936D0200913C
:101E3000AA0120916902409168026DEC80E00E9445
:101E4000190480936F020F910895992781309105AD
:101E500051F082309105D4F08230910551F0039712
:101E600071F0E0E018C0E0916002E695E695E3705D
:101E700012C0E0916002E295EF70E3700CC0E09157
:101E80006002E295E695E695E37005C0892B49F777
:101E9000E0916002E370FF27E854F94F849199279D
:101EA000089580916C028823E9F080916C02815042
:101EB00080936C0280916B0282FD21C080910F01A2
:101EC0008F5F80930F0183700E94250F826085BB16
:101ED00080916C02882391F480916B028E7F8093B5
:101EE0006B02089580916B028E7F80936B028091CC
:101EF000610280FF03C085B3807E85BB0895809119
:101F00000F018150DECFAA1BBB1B51E107C0AA1FE6
:101F1000BB1FA617B70710F0A61BB70B881F991F8A
:101F20005A95A9F780959095BC01CD01089597FB2E
:101F3000092E07260AD077FD04D0E5DF06D0002061
:101F40001AF4709561957F4F0895F6F790958195F5
:101F50009F4F0895E199FECFBFBBAEBBE09A1196AB
:101F60000DB20895F7DF01921A94E1F70895E1990F
:101F7000FECFBFBBAEBB0DBA11960FB6F894E29A76
:061F8000E19A0FBE089576
:021F8600140045
:00000001FF
